S0150000426C696E6B696E6741764C45442E7372656355
S11300000C9434000C943E000C943E000C943E007E
S11300100C943E000C943E000C943E000C943E0064
S11300200C943E000C943E000C943E000C943E0054
S11300300C943E000C943E000C943E000C943E0044
S11300400C943E000C943E000C943E000C943E0034
S11300500C943E000C943E000C943E000C943E0024
S11300600C943E000C943E0011241FBECFEFD4E04C
S1130070DEBFCDBF0E9451000C9457000C940000C9
S1130080219A08958AE090E0E7EAF1E63197F1F7E2
S113009000C000000197C1F795B182E0892785B9B6
S11300A008950E944000299A0E944200FDCFF894CE
S10500B0FFCF7C
S9030000FC
