S011000050574D64696F6465722E73726563A8
S11300000C9434000C943E000C943E000C943E007E
S11300100C943E000C943E000C943E000C943E0064
S11300200C943E000C943E000C943E000C943E0054
S11300300C943E000C943E000C943E000C943E0044
S11300400C943E000C943E000C943E000C943E0034
S11300500C943E000C943E000C943E000C943E0024
S11300600C943E000C943E0011241FBECFEFD4E04C
S1130070DEBFCDBF0E9440000C948A000C940000A7
S113008084B1866084B9E0E8F0E08081836A80838B
S1130090E1E8F0E080818960808310928900109209
S11300A088008FEF93E090938B0080938A00A8E8F8
S11300B0B0E0EAE8F0E02FEF31E08D919C911197E8
S11300C0029611969C938E938081918102979183DD
S11300D0808389EF90E00197F1F700C00000215080
S11300E0310959F72FEF31E08D919C9111970297C7
S11300F011969C938E938081918102969183808343
S113010089EF90E00197F1F700C000002150310918
S10B011059F7D1CFF894FFCF99
S9030000FC
